{
  "abi": [
    {
      "anonymous": false,
      "inputs": [
        {
          "indexed": false,
          "internalType": "bytes",
          "name": "data",
          "type": "bytes"
        }
      ],
      "name": "Data",
      "type": "event"
    },
    {
      "anonymous": false,
      "inputs": [
        {
          "indexed": false,
          "internalType": "uint8",
          "name": "version",
          "type": "uint8"
        }
      ],
      "name": "Initialized",
      "type": "event"
    },
    {
      "anonymous": false,
      "inputs": [
        {
          "indexed": false,
          "internalType": "uint256",
          "name": "id",
          "type": "uint256"
        },
        {
          "indexed": false,
          "internalType": "address",
          "name": "token_address",
          "type": "address"
        },
        {
          "indexed": false,
          "internalType": "uint256",
          "name": "amount",
          "type": "uint256"
        },
        {
          "indexed": false,
          "internalType": "bytes32",
          "name": "passphrase",
          "type": "bytes32"
        },
        {
          "indexed": false,
          "internalType": "address",
          "name": "sender",
          "type": "address"
        },
        {
          "indexed": false,
          "internalType": "address",
          "name": "receiver",
          "type": "address"
        },
        {
          "indexed": false,
          "internalType": "bool",
          "name": "is_swap",
          "type": "bool"
        },
        {
          "indexed": false,
          "internalType": "address",
          "name": "swap_token_address",
          "type": "address"
        },
        {
          "indexed": false,
          "internalType": "uint256",
          "name": "swap_amount",
          "type": "uint256"
        },
        {
          "indexed": false,
          "internalType": "uint256",
          "name": "swap_deadline",
          "type": "uint256"
        }
      ],
      "name": "New_Order",
      "type": "event"
    },
    {
      "anonymous": false,
      "inputs": [
        {
          "indexed": false,
          "internalType": "uint256",
          "name": "id",
          "type": "uint256"
        }
      ],
      "name": "Order_Cancelled",
      "type": "event"
    },
    {
      "anonymous": false,
      "inputs": [
        {
          "indexed": false,
          "internalType": "uint256",
          "name": "id",
          "type": "uint256"
        }
      ],
      "name": "Order_Completed",
      "type": "event"
    },
    {
      "anonymous": false,
      "inputs": [
        {
          "indexed": true,
          "internalType": "bytes32",
          "name": "role",
          "type": "bytes32"
        },
        {
          "indexed": true,
          "internalType": "bytes32",
          "name": "previousAdminRole",
          "type": "bytes32"
        },
        {
          "indexed": true,
          "internalType": "bytes32",
          "name": "newAdminRole",
          "type": "bytes32"
        }
      ],
      "name": "RoleAdminChanged",
      "type": "event"
    },
    {
      "anonymous": false,
      "inputs": [
        {
          "indexed": true,
          "internalType": "bytes32",
          "name": "role",
          "type": "bytes32"
        },
        {
          "indexed": true,
          "internalType": "address",
          "name": "account",
          "type": "address"
        },
        {
          "indexed": true,
          "internalType": "address",
          "name": "sender",
          "type": "address"
        }
      ],
      "name": "RoleGranted",
      "type": "event"
    },
    {
      "anonymous": false,
      "inputs": [
        {
          "indexed": true,
          "internalType": "bytes32",
          "name": "role",
          "type": "bytes32"
        },
        {
          "indexed": true,
          "internalType": "address",
          "name": "account",
          "type": "address"
        },
        {
          "indexed": true,
          "internalType": "address",
          "name": "sender",
          "type": "address"
        }
      ],
      "name": "RoleRevoked",
      "type": "event"
    },
    {
      "inputs": [],
      "name": "DEFAULT_ADMIN_ROLE",
      "outputs": [
        {
          "internalType": "bytes32",
          "name": "",
          "type": "bytes32"
        }
      ],
      "stateMutability": "view",
      "type": "function"
    },
    {
      "inputs": [
        {
          "internalType": "address",
          "name": "_token_address",
          "type": "address"
        },
        {
          "internalType": "uint256",
          "name": "_amount",
          "type": "uint256"
        },
        {
          "internalType": "bytes32",
          "name": "_passphrase",
          "type": "bytes32"
        },
        {
          "internalType": "address",
          "name": "_receiver",
          "type": "address"
        },
        {
          "internalType": "bool",
          "name": "_is_swap",
          "type": "bool"
        },
        {
          "internalType": "address",
          "name": "_swap_token_address",
          "type": "address"
        },
        {
          "internalType": "uint256",
          "name": "_swap_amount",
          "type": "uint256"
        },
        {
          "internalType": "uint256",
          "name": "_swap_deadline",
          "type": "uint256"
        }
      ],
      "name": "add_order",
      "outputs": [],
      "stateMutability": "payable",
      "type": "function"
    },
    {
      "inputs": [
        {
          "internalType": "string",
          "name": "passphrase_string",
          "type": "string"
        }
      ],
      "name": "claim_asset",
      "outputs": [],
      "stateMutability": "nonpayable",
      "type": "function"
    },
    {
      "inputs": [],
      "name": "count",
      "outputs": [
        {
          "internalType": "uint256",
          "name": "",
          "type": "uint256"
        }
      ],
      "stateMutability": "view",
      "type": "function"
    },
    {
      "inputs": [],
      "name": "fee_collect_address",
      "outputs": [
        {
          "internalType": "address",
          "name": "",
          "type": "address"
        }
      ],
      "stateMutability": "view",
      "type": "function"
    },
    {
      "inputs": [],
      "name": "fee_rate",
      "outputs": [
        {
          "internalType": "uint256",
          "name": "",
          "type": "uint256"
        }
      ],
      "stateMutability": "view",
      "type": "function"
    },
    {
      "inputs": [
        {
          "internalType": "bytes32",
          "name": "role",
          "type": "bytes32"
        }
      ],
      "name": "getRoleAdmin",
      "outputs": [
        {
          "internalType": "bytes32",
          "name": "",
          "type": "bytes32"
        }
      ],
      "stateMutability": "view",
      "type": "function"
    },
    {
      "inputs": [
        {
          "internalType": "bytes32",
          "name": "role",
          "type": "bytes32"
        },
        {
          "internalType": "address",
          "name": "account",
          "type": "address"
        }
      ],
      "name": "grantRole",
      "outputs": [],
      "stateMutability": "nonpayable",
      "type": "function"
    },
    {
      "inputs": [
        {
          "internalType": "bytes32",
          "name": "role",
          "type": "bytes32"
        },
        {
          "internalType": "address",
          "name": "account",
          "type": "address"
        }
      ],
      "name": "hasRole",
      "outputs": [
        {
          "internalType": "bool",
          "name": "",
          "type": "bool"
        }
      ],
      "stateMutability": "view",
      "type": "function"
    },
    {
      "inputs": [
        {
          "internalType": "uint256",
          "name": "_fee_rate",
          "type": "uint256"
        },
        {
          "internalType": "address",
          "name": "_fee_collect_address",
          "type": "address"
        }
      ],
      "name": "initialize",
      "outputs": [],
      "stateMutability": "nonpayable",
      "type": "function"
    },
    {
      "inputs": [
        {
          "internalType": "bytes32",
          "name": "passphrase",
          "type": "bytes32"
        }
      ],
      "name": "is_passphrase_unique",
      "outputs": [
        {
          "internalType": "bool",
          "name": "",
          "type": "bool"
        }
      ],
      "stateMutability": "view",
      "type": "function"
    },
    {
      "inputs": [
        {
          "internalType": "bytes32",
          "name": "role",
          "type": "bytes32"
        },
        {
          "internalType": "address",
          "name": "account",
          "type": "address"
        }
      ],
      "name": "renounceRole",
      "outputs": [],
      "stateMutability": "nonpayable",
      "type": "function"
    },
    {
      "inputs": [
        {
          "internalType": "bytes32",
          "name": "passphrase",
          "type": "bytes32"
        }
      ],
      "name": "retrieve_unclaimed_order",
      "outputs": [],
      "stateMutability": "nonpayable",
      "type": "function"
    },
    {
      "inputs": [
        {
          "internalType": "bytes32",
          "name": "role",
          "type": "bytes32"
        },
        {
          "internalType": "address",
          "name": "account",
          "type": "address"
        }
      ],
      "name": "revokeRole",
      "outputs": [],
      "stateMutability": "nonpayable",
      "type": "function"
    },
    {
      "inputs": [
        {
          "internalType": "address",
          "name": "_fee_collect_address",
          "type": "address"
        }
      ],
      "name": "set_fee_collect_address",
      "outputs": [],
      "stateMutability": "nonpayable",
      "type": "function"
    },
    {
      "inputs": [
        {
          "internalType": "uint256",
          "name": "_new_fee_rate",
          "type": "uint256"
        }
      ],
      "name": "set_fee_rate",
      "outputs": [],
      "stateMutability": "nonpayable",
      "type": "function"
    },
    {
      "inputs": [
        {
          "internalType": "bytes4",
          "name": "interfaceId",
          "type": "bytes4"
        }
      ],
      "name": "supportsInterface",
      "outputs": [
        {
          "internalType": "bool",
          "name": "",
          "type": "bool"
        }
      ],
      "stateMutability": "view",
      "type": "function"
    }
  ],
  "bytecode": {
    "object": "0x608060405234801561001057600080fd5b5061198a806100206000396000f3fe6080604052600436106100fe5760003560e01c80634d78caf211610095578063a217fddf11610064578063a217fddf146102a1578063d547741f146102b6578063d5b179cb146102d6578063da35a26f1461030e578063fcb53d361461032e57600080fd5b80634d78caf21461022e578063719106c51461024e57806391d14854146102615780639fd815071461028157600080fd5b8063248a9ca3116100d1578063248a9ca31461019e5780632f2ff15d146101ce57806336568abe146101ee5780633e49e8371461020e57600080fd5b806301ffc9a71461010357806306661abd14610138578063100152fd1461015c578063202b29a21461017e575b600080fd5b34801561010f57600080fd5b5061012361011e366004611595565b610344565b60405190151581526020015b60405180910390f35b34801561014457600080fd5b5061014e60975481565b60405190815260200161012f565b34801561016857600080fd5b5061017c6101773660046115bf565b61037b565b005b34801561018a57600080fd5b5061017c6101993660046115bf565b61051d565b3480156101aa57600080fd5b5061014e6101b93660046115bf565b60009081526065602052604090206001015490565b3480156101da57600080fd5b5061017c6101e93660046115ef565b610569565b3480156101fa57600080fd5b5061017c6102093660046115ef565b610593565b34801561021a57600080fd5b5061017c610229366004611631565b610611565b34801561023a57600080fd5b506101236102493660046115bf565b610925565b61017c61025c3660046116f0565b610959565b34801561026d57600080fd5b5061012361027c3660046115ef565b610c68565b34801561028d57600080fd5b5061017c61029c36600461176d565b610c93565b3480156102ad57600080fd5b5061014e600081565b3480156102c257600080fd5b5061017c6102d13660046115ef565b610cfc565b3480156102e257600080fd5b506099546102f6906001600160a01b031681565b6040516001600160a01b03909116815260200161012f565b34801561031a57600080fd5b5061017c6103293660046115ef565b610d21565b34801561033a57600080fd5b5061014e60985481565b60006001600160e01b03198216637965db0b60e01b148061037557506301ffc9a760e01b6001600160e01b03198316145b92915050565b6000818152609a60209081526040918290208251610140810184528154815260018201546001600160a01b0390811693820193909352600282015493810193909352600381015460608401526004810154821660808401819052600582015480841660a0860152600160a01b900460ff16151560c0850152600682015490921660e084015260078101546101008401526008015461012083015233146104685760405162461bcd60e51b815260206004820152601860248201527f4e6f7420616c6c6f77207265747269657665206173736574000000000000000060448201526064015b60405180910390fd5b61047f816080015182604001518360200151610e74565b80516040519081527f2807be01e8c0a1057e0a49c851fcd4d7195d56121b8593255e6fb994ae3e31c09060200160405180910390a1506000908152609a602052604081208181556001810180546001600160a01b03199081169091556002820183905560038201839055600482018054821690556005820180546001600160a81b031916905560068201805490911690556007810182905560080155565b610528600033610c68565b6105645760405162461bcd60e51b815260206004820152600d60248201526c26bab9ba1031329020b236b4b760991b604482015260640161045f565b609855565b60008281526065602052604090206001015461058481611087565b61058e8383611094565b505050565b6001600160a01b03811633146106035760405162461bcd60e51b815260206004820152602f60248201527f416363657373436f6e74726f6c3a2063616e206f6e6c792072656e6f756e636560448201526e103937b632b9903337b91039b2b63360891b606482015260840161045f565b61060d828261111a565b5050565b60008160405160200161062491906117ac565b60408051808303601f1901815282825280516020918201206000818152609a8352839020610140850184528054855260018101546001600160a01b039081169386019390935260028101549385019390935260038301546060850152600483015482166080850152600583015480831660a08601819052600160a01b90910460ff16151560c0860152600684015490921660e085015260078301546101008501526008909201546101208401529092506107175760405162461bcd60e51b815260206004820152601460248201527314185cdcdc1a1c985cd9481b9bdd08195e1a5cdd60621b604482015260640161045f565b60a08101516001600160a01b0316331461076a5760405162461bcd60e51b815260206004820152601460248201527320b2323932b9b9903737ba103932b1b2b4bb32b960611b604482015260640161045f565b8060c0015115610821578061012001514211156107b85760405162461bcd60e51b815260206004820152600c60248201526b14ddd85c08195e1c1a5c995960a21b604482015260640161045f565b600060646098548361010001516107cf91906117de565b6107d991906117f5565b60995460e08401519192506107fb9133916001600160a01b0316908490611181565b61081f338360800151838561010001516108159190611817565b8560e00151611181565b505b60006064609854836040015161083791906117de565b61084191906117f5565b6099546020840151919250610863916001600160a01b03909116908390610e74565b6108858260a0015182846040015161087b9190611817565b8460200151610e74565b81516040519081527f993e0191a6f7be8d091d9fd64f9be172b4e6ac4557cec8285ea682f23af7301b9060200160405180910390a150506000908152609a602052604081208181556001810180546001600160a01b03199081169091556002820183905560038201839055600482018054821690556005820180546001600160a81b03191690556006820180549091169055600781018290556008015550565b6000818152609a60205260408120600401546001600160a01b031661094c57506001919050565b506000919050565b919050565b6000868152609a60205260409020600401546001600160a01b0316156109c15760405162461bcd60e51b815260206004820152601a60248201527f43616e6e6f74207573652073616d652070617373706872617365000000000000604482015260640161045f565b8315610a295780421115610a295760405162461bcd60e51b815260206004820152602960248201527f43616e6e6f742073657420646561646c696e65206265666f72652063757272656044820152681b9d081b5bdb595b9d60ba1b606482015260840161045f565b610a353330898b611181565b600060405180610140016040528060975481526020018a6001600160a01b03168152602001898152602001888152602001336001600160a01b03168152602001876001600160a01b031681526020018615158152602001856001600160a01b0316815260200184815260200183815250905080609a60008981526020019081526020016000206000820151816000015560208201518160010160006101000a8154816001600160a01b0302191690836001600160a01b03160217905550604082015181600201556060820151816003015560808201518160040160006101000a8154816001600160a01b0302191690836001600160a01b0316021790555060a08201518160050160006101000a8154816001600160a01b0302191690836001600160a01b0316021790555060c08201518160050160146101000a81548160ff02191690831515021790555060e08201518160060160006101000a8154816001600160a01b0302191690836001600160a01b0316021790555061010082015181600701556101208201518160080155905050600160976000828254610bd9919061182a565b90915550508051604080519182526001600160a01b038b811660208401528282018b9052606083018a905233608084015288811660a084015287151560c0840152861660e083015261010082018590526101208201849052517ffe617faa0b722d21b2b882e2f2f85a14a69cff9565eb0fc4c31c057e52d8c49e918190036101400190a1505050505050505050565b60009182526065602090815260408084206001600160a01b0393909316845291905290205460ff1690565b610c9e600033610c68565b610cda5760405162461bcd60e51b815260206004820152600d60248201526c26bab9ba1031329020b236b4b760991b604482015260640161045f565b609980546001600160a01b0319166001600160a01b0392909216919091179055565b600082815260656020526040902060010154610d1781611087565b61058e838361111a565b600054610100900460ff1615808015610d415750600054600160ff909116105b80610d5b5750303b158015610d5b575060005460ff166001145b610dbe5760405162461bcd60e51b815260206004820152602e60248201527f496e697469616c697a61626c653a20636f6e747261637420697320616c72656160448201526d191e481a5b9a5d1a585b1a5e995960921b606482015260840161045f565b6000805460ff191660011790558015610de1576000805461ff0019166101001790555b610de961131a565b610df161131a565b610df961131a565b600060978190556098849055609980546001600160a01b0319166001600160a01b038516179055610e2a9033611094565b801561058e576000805461ff0019169055604051600181527f7f26b83ff96e1f2b6a682f133852f6798a09c465da95921460cefb38474024989060200160405180910390a1505050565b6001600160a01b038116610f5c57600080846001600160a01b03168460405160006040518083038185875af1925050503d8060008114610ed0576040519150601f19603f3d011682016040523d82523d6000602084013e610ed5565b606091505b509150915081610f1e5760405162461bcd60e51b81526020600482015260146024820152732330b4b632b2103a379039b2b7321022ba3432b960611b604482015260640161045f565b7f0b76c48be4e2908f4c9d4eabaf7538e91577fd9ae26db46693fa8d861c6a42fb81604051610f4d9190611869565b60405180910390a15050505050565b6040516370a0823160e01b8152306004820152819083906001600160a01b038316906370a0823190602401602060405180830381865afa158015610fa4573d6000803e3d6000fd5b505050506040513d601f19601f82011682018060405250810190610fc8919061187c565b101561100d5760405162461bcd60e51b8152602060048201526014602482015273496e73756666696369656e742062616c616e636560601b604482015260640161045f565b60405163a9059cbb60e01b81526001600160a01b0385811660048301526024820185905282169063a9059cbb906044016020604051808303816000875af115801561105c573d6000803e3d6000fd5b505050506040513d601f19601f820116820180604052508101906110809190611895565b5050505050565b6110918133611387565b50565b61109e8282610c68565b61060d5760008281526065602090815260408083206001600160a01b03851684529091529020805460ff191660011790556110d63390565b6001600160a01b0316816001600160a01b0316837f2f8788117e7eff1d82e926ec794901d17c78024a50270940304540a733656f0d60405160405180910390a45050565b6111248282610c68565b1561060d5760008281526065602090815260408083206001600160a01b0385168085529252808320805460ff1916905551339285917ff6391f5c32d9c69d2a47ea670b442974b53935d1edc7fd64eb21e047a839171b9190a45050565b6001600160a01b0381166111e3578134146111de5760405162461bcd60e51b815260206004820152601a60248201527f416d6f756e7420616e642076616c7565206e6f74206d61746368000000000000604482015260640161045f565b611314565b6040516370a0823160e01b81526001600160a01b038581166004830152829184918316906370a0823190602401602060405180830381865afa15801561122d573d6000803e3d6000fd5b505050506040513d601f19601f82011682018060405250810190611251919061187c565b10156112965760405162461bcd60e51b8152602060048201526014602482015273496e73756666696369656e742062616c616e636560601b604482015260640161045f565b6040516323b872dd60e01b81526001600160a01b0386811660048301528581166024830152604482018590528216906323b872dd906064016020604051808303816000875af11580156112ed573d6000803e3d6000fd5b505050506040513d601f19601f820116820180604052508101906113119190611895565b50505b50505050565b600054610100900460ff166113855760405162461bcd60e51b815260206004820152602b60248201527f496e697469616c697a61626c653a20636f6e7472616374206973206e6f74206960448201526a6e697469616c697a696e6760a81b606482015260840161045f565b565b6113918282610c68565b61060d5761139e816113e0565b6113a98360206113f2565b6040516020016113ba9291906118b2565b60408051601f198184030181529082905262461bcd60e51b825261045f91600401611869565b60606103756001600160a01b03831660145b606060006114018360026117de565b61140c90600261182a565b67ffffffffffffffff8111156114245761142461161b565b6040519080825280601f01601f19166020018201604052801561144e576020820181803683370190505b509050600360fc1b8160008151811061146957611469611927565b60200101906001600160f81b031916908160001a905350600f60fb1b8160018151811061149857611498611927565b60200101906001600160f81b031916908160001a90535060006114bc8460026117de565b6114c790600161182a565b90505b600181111561153f576f181899199a1a9b1b9c1cb0b131b232b360811b85600f16601081106114fb576114fb611927565b1a60f81b82828151811061151157611511611927565b60200101906001600160f81b031916908160001a90535060049490941c936115388161193d565b90506114ca565b50831561158e5760405162461bcd60e51b815260206004820181905260248201527f537472696e67733a20686578206c656e67746820696e73756666696369656e74604482015260640161045f565b9392505050565b6000602082840312156115a757600080fd5b81356001600160e01b03198116811461158e57600080fd5b6000602082840312156115d157600080fd5b5035919050565b80356001600160a01b038116811461095457600080fd5b6000806040838503121561160257600080fd5b82359150611612602084016115d8565b90509250929050565b634e487b7160e01b600052604160045260246000fd5b60006020828403121561164357600080fd5b813567ffffffffffffffff8082111561165b57600080fd5b818401915084601f83011261166f57600080fd5b8135818111156116815761168161161b565b604051601f8201601f19908116603f011681019083821181831017156116a9576116a961161b565b816040528281528760208487010111156116c257600080fd5b826020860160208301376000928101602001929092525095945050505050565b801515811461109157600080fd5b600080600080600080600080610100898b03121561170d57600080fd5b611716896115d8565b9750602089013596506040890135955061173260608a016115d8565b94506080890135611742816116e2565b935061175060a08a016115d8565b925060c0890135915060e089013590509295985092959890939650565b60006020828403121561177f57600080fd5b61158e826115d8565b60005b838110156117a357818101518382015260200161178b565b50506000910152565b600082516117be818460208701611788565b9190910192915050565b634e487b7160e01b600052601160045260246000fd5b8082028115828204841417610375576103756117c8565b60008261181257634e487b7160e01b600052601260045260246000fd5b500490565b81810381811115610375576103756117c8565b80820180821115610375576103756117c8565b60008151808452611855816020860160208601611788565b601f01601f19169290920160200192915050565b60208152600061158e602083018461183d565b60006020828403121561188e57600080fd5b5051919050565b6000602082840312156118a757600080fd5b815161158e816116e2565b7f416363657373436f6e74726f6c3a206163636f756e74200000000000000000008152600083516118ea816017850160208801611788565b7001034b99036b4b9b9b4b733903937b6329607d1b601791840191820152835161191b816028840160208801611788565b01602801949350505050565b634e487b7160e01b600052603260045260246000fd5b60008161194c5761194c6117c8565b50600019019056fea26469706673582212206337b14e16fae4bb2ca49368cb919e185ee42bf3d01802698756a785dcbe20fa64736f6c63430008110033",
    "linkReferences": {}
  },
  "methodIdentifiers": {
    "DEFAULT_ADMIN_ROLE()": "a217fddf",
    "add_order(address,uint256,bytes32,address,bool,address,uint256,uint256)": "719106c5",
    "claim_asset(string)": "3e49e837",
    "count()": "06661abd",
    "fee_collect_address()": "d5b179cb",
    "fee_rate()": "fcb53d36",
    "getRoleAdmin(bytes32)": "248a9ca3",
    "grantRole(bytes32,address)": "2f2ff15d",
    "hasRole(bytes32,address)": "91d14854",
    "initialize(uint256,address)": "da35a26f",
    "is_passphrase_unique(bytes32)": "4d78caf2",
    "renounceRole(bytes32,address)": "36568abe",
    "retrieve_unclaimed_order(bytes32)": "100152fd",
    "revokeRole(bytes32,address)": "d547741f",
    "set_fee_collect_address(address)": "9fd81507",
    "set_fee_rate(uint256)": "202b29a2",
    "supportsInterface(bytes4)": "01ffc9a7"
  },
  "id": 1
}