{
  "abi": [
    {
      "anonymous": false,
      "inputs": [
        {
          "indexed": false,
          "internalType": "bytes",
          "name": "data",
          "type": "bytes"
        }
      ],
      "name": "Data",
      "type": "event"
    },
    {
      "anonymous": false,
      "inputs": [
        {
          "indexed": false,
          "internalType": "uint8",
          "name": "version",
          "type": "uint8"
        }
      ],
      "name": "Initialized",
      "type": "event"
    },
    {
      "anonymous": false,
      "inputs": [
        {
          "indexed": false,
          "internalType": "uint256",
          "name": "id",
          "type": "uint256"
        },
        {
          "indexed": false,
          "internalType": "address",
          "name": "token_address",
          "type": "address"
        },
        {
          "indexed": false,
          "internalType": "uint256",
          "name": "amount",
          "type": "uint256"
        },
        {
          "indexed": false,
          "internalType": "bytes32",
          "name": "passphrase",
          "type": "bytes32"
        },
        {
          "indexed": false,
          "internalType": "address",
          "name": "sender",
          "type": "address"
        },
        {
          "indexed": false,
          "internalType": "address",
          "name": "receiver",
          "type": "address"
        },
        {
          "indexed": false,
          "internalType": "bool",
          "name": "is_swap",
          "type": "bool"
        },
        {
          "indexed": false,
          "internalType": "address",
          "name": "swap_token_address",
          "type": "address"
        },
        {
          "indexed": false,
          "internalType": "uint256",
          "name": "swap_amount",
          "type": "uint256"
        },
        {
          "indexed": false,
          "internalType": "uint256",
          "name": "swap_deadline",
          "type": "uint256"
        }
      ],
      "name": "New_Order",
      "type": "event"
    },
    {
      "anonymous": false,
      "inputs": [
        {
          "indexed": false,
          "internalType": "uint256",
          "name": "id",
          "type": "uint256"
        }
      ],
      "name": "Order_Cancelled",
      "type": "event"
    },
    {
      "anonymous": false,
      "inputs": [
        {
          "indexed": false,
          "internalType": "uint256",
          "name": "id",
          "type": "uint256"
        }
      ],
      "name": "Order_Completed",
      "type": "event"
    },
    {
      "anonymous": false,
      "inputs": [
        {
          "indexed": true,
          "internalType": "bytes32",
          "name": "role",
          "type": "bytes32"
        },
        {
          "indexed": true,
          "internalType": "bytes32",
          "name": "previousAdminRole",
          "type": "bytes32"
        },
        {
          "indexed": true,
          "internalType": "bytes32",
          "name": "newAdminRole",
          "type": "bytes32"
        }
      ],
      "name": "RoleAdminChanged",
      "type": "event"
    },
    {
      "anonymous": false,
      "inputs": [
        {
          "indexed": true,
          "internalType": "bytes32",
          "name": "role",
          "type": "bytes32"
        },
        {
          "indexed": true,
          "internalType": "address",
          "name": "account",
          "type": "address"
        },
        {
          "indexed": true,
          "internalType": "address",
          "name": "sender",
          "type": "address"
        }
      ],
      "name": "RoleGranted",
      "type": "event"
    },
    {
      "anonymous": false,
      "inputs": [
        {
          "indexed": true,
          "internalType": "bytes32",
          "name": "role",
          "type": "bytes32"
        },
        {
          "indexed": true,
          "internalType": "address",
          "name": "account",
          "type": "address"
        },
        {
          "indexed": true,
          "internalType": "address",
          "name": "sender",
          "type": "address"
        }
      ],
      "name": "RoleRevoked",
      "type": "event"
    },
    {
      "inputs": [],
      "name": "DEFAULT_ADMIN_ROLE",
      "outputs": [
        {
          "internalType": "bytes32",
          "name": "",
          "type": "bytes32"
        }
      ],
      "stateMutability": "view",
      "type": "function"
    },
    {
      "inputs": [
        {
          "internalType": "address",
          "name": "_token_address",
          "type": "address"
        },
        {
          "internalType": "uint256",
          "name": "_amount",
          "type": "uint256"
        },
        {
          "internalType": "bytes32",
          "name": "_passphrase",
          "type": "bytes32"
        },
        {
          "internalType": "address",
          "name": "_receiver",
          "type": "address"
        },
        {
          "internalType": "bool",
          "name": "_is_swap",
          "type": "bool"
        },
        {
          "internalType": "address",
          "name": "_swap_token_address",
          "type": "address"
        },
        {
          "internalType": "uint256",
          "name": "_swap_amount",
          "type": "uint256"
        },
        {
          "internalType": "uint256",
          "name": "_swap_deadline",
          "type": "uint256"
        }
      ],
      "name": "add_order",
      "outputs": [],
      "stateMutability": "payable",
      "type": "function"
    },
    {
      "inputs": [
        {
          "internalType": "bytes32",
          "name": "passphrase",
          "type": "bytes32"
        }
      ],
      "name": "claim_asset",
      "outputs": [],
      "stateMutability": "nonpayable",
      "type": "function"
    },
    {
      "inputs": [],
      "name": "count",
      "outputs": [
        {
          "internalType": "uint256",
          "name": "",
          "type": "uint256"
        }
      ],
      "stateMutability": "view",
      "type": "function"
    },
    {
      "inputs": [],
      "name": "fee_collect_address",
      "outputs": [
        {
          "internalType": "address",
          "name": "",
          "type": "address"
        }
      ],
      "stateMutability": "view",
      "type": "function"
    },
    {
      "inputs": [],
      "name": "fee_rate",
      "outputs": [
        {
          "internalType": "uint256",
          "name": "",
          "type": "uint256"
        }
      ],
      "stateMutability": "view",
      "type": "function"
    },
    {
      "inputs": [
        {
          "internalType": "bytes32",
          "name": "role",
          "type": "bytes32"
        }
      ],
      "name": "getRoleAdmin",
      "outputs": [
        {
          "internalType": "bytes32",
          "name": "",
          "type": "bytes32"
        }
      ],
      "stateMutability": "view",
      "type": "function"
    },
    {
      "inputs": [
        {
          "internalType": "bytes32",
          "name": "role",
          "type": "bytes32"
        },
        {
          "internalType": "address",
          "name": "account",
          "type": "address"
        }
      ],
      "name": "grantRole",
      "outputs": [],
      "stateMutability": "nonpayable",
      "type": "function"
    },
    {
      "inputs": [
        {
          "internalType": "bytes32",
          "name": "role",
          "type": "bytes32"
        },
        {
          "internalType": "address",
          "name": "account",
          "type": "address"
        }
      ],
      "name": "hasRole",
      "outputs": [
        {
          "internalType": "bool",
          "name": "",
          "type": "bool"
        }
      ],
      "stateMutability": "view",
      "type": "function"
    },
    {
      "inputs": [
        {
          "internalType": "uint256",
          "name": "_fee_rate",
          "type": "uint256"
        },
        {
          "internalType": "address",
          "name": "_fee_collect_address",
          "type": "address"
        }
      ],
      "name": "initialize",
      "outputs": [],
      "stateMutability": "nonpayable",
      "type": "function"
    },
    {
      "inputs": [
        {
          "internalType": "bytes32",
          "name": "passphrase",
          "type": "bytes32"
        }
      ],
      "name": "is_passphrase_unique",
      "outputs": [
        {
          "internalType": "bool",
          "name": "",
          "type": "bool"
        }
      ],
      "stateMutability": "view",
      "type": "function"
    },
    {
      "inputs": [
        {
          "internalType": "bytes32",
          "name": "role",
          "type": "bytes32"
        },
        {
          "internalType": "address",
          "name": "account",
          "type": "address"
        }
      ],
      "name": "renounceRole",
      "outputs": [],
      "stateMutability": "nonpayable",
      "type": "function"
    },
    {
      "inputs": [
        {
          "internalType": "bytes32",
          "name": "passphrase",
          "type": "bytes32"
        }
      ],
      "name": "retrieve_unclaimed_order",
      "outputs": [],
      "stateMutability": "nonpayable",
      "type": "function"
    },
    {
      "inputs": [
        {
          "internalType": "bytes32",
          "name": "role",
          "type": "bytes32"
        },
        {
          "internalType": "address",
          "name": "account",
          "type": "address"
        }
      ],
      "name": "revokeRole",
      "outputs": [],
      "stateMutability": "nonpayable",
      "type": "function"
    },
    {
      "inputs": [
        {
          "internalType": "address",
          "name": "_fee_collect_address",
          "type": "address"
        }
      ],
      "name": "set_fee_collect_address",
      "outputs": [],
      "stateMutability": "nonpayable",
      "type": "function"
    },
    {
      "inputs": [
        {
          "internalType": "uint256",
          "name": "_new_fee_rate",
          "type": "uint256"
        }
      ],
      "name": "set_fee_rate",
      "outputs": [],
      "stateMutability": "nonpayable",
      "type": "function"
    },
    {
      "inputs": [
        {
          "internalType": "bytes4",
          "name": "interfaceId",
          "type": "bytes4"
        }
      ],
      "name": "supportsInterface",
      "outputs": [
        {
          "internalType": "bool",
          "name": "",
          "type": "bool"
        }
      ],
      "stateMutability": "view",
      "type": "function"
    }
  ],
  "bytecode": {
    "object": "0x608060405234801561001057600080fd5b50611894806100206000396000f3fe6080604052600436106100fe5760003560e01c80636e1008f211610095578063a217fddf11610064578063a217fddf146102a1578063d547741f146102b6578063d5b179cb146102d6578063da35a26f1461030e578063fcb53d361461032e57600080fd5b80636e1008f21461022e578063719106c51461024e57806391d14854146102615780639fd815071461028157600080fd5b8063248a9ca3116100d1578063248a9ca31461019e5780632f2ff15d146101ce57806336568abe146101ee5780634d78caf21461020e57600080fd5b806301ffc9a71461010357806306661abd14610138578063100152fd1461015c578063202b29a21461017e575b600080fd5b34801561010f57600080fd5b5061012361011e36600461156c565b610344565b60405190151581526020015b60405180910390f35b34801561014457600080fd5b5061014e60975481565b60405190815260200161012f565b34801561016857600080fd5b5061017c610177366004611596565b61037b565b005b34801561018a57600080fd5b5061017c610199366004611596565b61051d565b3480156101aa57600080fd5b5061014e6101b9366004611596565b60009081526065602052604090206001015490565b3480156101da57600080fd5b5061017c6101e93660046115c6565b610569565b3480156101fa57600080fd5b5061017c6102093660046115c6565b610593565b34801561021a57600080fd5b50610123610229366004611596565b610611565b34801561023a57600080fd5b5061017c610249366004611596565b610645565b61017c61025c366004611600565b610930565b34801561026d57600080fd5b5061012361027c3660046115c6565b610c3f565b34801561028d57600080fd5b5061017c61029c36600461167d565b610c6a565b3480156102ad57600080fd5b5061014e600081565b3480156102c257600080fd5b5061017c6102d13660046115c6565b610cd3565b3480156102e257600080fd5b506099546102f6906001600160a01b031681565b6040516001600160a01b03909116815260200161012f565b34801561031a57600080fd5b5061017c6103293660046115c6565b610cf8565b34801561033a57600080fd5b5061014e60985481565b60006001600160e01b03198216637965db0b60e01b148061037557506301ffc9a760e01b6001600160e01b03198316145b92915050565b6000818152609a60209081526040918290208251610140810184528154815260018201546001600160a01b0390811693820193909352600282015493810193909352600381015460608401526004810154821660808401819052600582015480841660a0860152600160a01b900460ff16151560c0850152600682015490921660e084015260078101546101008401526008015461012083015233146104685760405162461bcd60e51b815260206004820152601860248201527f4e6f7420616c6c6f77207265747269657665206173736574000000000000000060448201526064015b60405180910390fd5b61047f816080015182604001518360200151610e4b565b80516040519081527f2807be01e8c0a1057e0a49c851fcd4d7195d56121b8593255e6fb994ae3e31c09060200160405180910390a1506000908152609a602052604081208181556001810180546001600160a01b03199081169091556002820183905560038201839055600482018054821690556005820180546001600160a81b031916905560068201805490911690556007810182905560080155565b610528600033610c3f565b6105645760405162461bcd60e51b815260206004820152600d60248201526c26bab9ba1031329020b236b4b760991b604482015260640161045f565b609855565b6000828152606560205260409020600101546105848161105e565b61058e838361106b565b505050565b6001600160a01b03811633146106035760405162461bcd60e51b815260206004820152602f60248201527f416363657373436f6e74726f6c3a2063616e206f6e6c792072656e6f756e636560448201526e103937b632b9903337b91039b2b63360891b606482015260840161045f565b61060d82826110f1565b5050565b6000818152609a60205260408120600401546001600160a01b031661063857506001919050565b506000919050565b919050565b6000818152609a60209081526040918290208251610140810184528154815260018201546001600160a01b039081169382019390935260028201549381019390935260038101546060840152600481015482166080840152600581015480831660a08501819052600160a01b90910460ff16151560c0850152600682015490921660e08401526007810154610100840152600801546101208301526107235760405162461bcd60e51b815260206004820152601460248201527314185cdcdc1a1c985cd9481b9bdd08195e1a5cdd60621b604482015260640161045f565b60a08101516001600160a01b031633146107765760405162461bcd60e51b815260206004820152601460248201527320b2323932b9b9903737ba103932b1b2b4bb32b960611b604482015260640161045f565b8060c001511561082d578061012001514211156107c45760405162461bcd60e51b815260206004820152600c60248201526b14ddd85c08195e1c1a5c995960a21b604482015260640161045f565b600060646098548361010001516107db91906116ae565b6107e591906116c5565b60995460e08401519192506108079133916001600160a01b0316908490611158565b61082b3383608001518385610100015161082191906116e7565b8560e00151611158565b505b60006064609854836040015161084391906116ae565b61084d91906116c5565b609954602084015191925061086f916001600160a01b03909116908390610e4b565b6108918260a0015182846040015161088791906116e7565b8460200151610e4b565b81516040519081527f993e0191a6f7be8d091d9fd64f9be172b4e6ac4557cec8285ea682f23af7301b9060200160405180910390a150506000908152609a602052604081208181556001810180546001600160a01b03199081169091556002820183905560038201839055600482018054821690556005820180546001600160a81b031916905560068201805490911690556007810182905560080155565b6000868152609a60205260409020600401546001600160a01b0316156109985760405162461bcd60e51b815260206004820152601a60248201527f43616e6e6f74207573652073616d652070617373706872617365000000000000604482015260640161045f565b8315610a005780421115610a005760405162461bcd60e51b815260206004820152602960248201527f43616e6e6f742073657420646561646c696e65206265666f72652063757272656044820152681b9d081b5bdb595b9d60ba1b606482015260840161045f565b610a0c3330898b611158565b600060405180610140016040528060975481526020018a6001600160a01b03168152602001898152602001888152602001336001600160a01b03168152602001876001600160a01b031681526020018615158152602001856001600160a01b0316815260200184815260200183815250905080609a60008981526020019081526020016000206000820151816000015560208201518160010160006101000a8154816001600160a01b0302191690836001600160a01b03160217905550604082015181600201556060820151816003015560808201518160040160006101000a8154816001600160a01b0302191690836001600160a01b0316021790555060a08201518160050160006101000a8154816001600160a01b0302191690836001600160a01b0316021790555060c08201518160050160146101000a81548160ff02191690831515021790555060e08201518160060160006101000a8154816001600160a01b0302191690836001600160a01b0316021790555061010082015181600701556101208201518160080155905050600160976000828254610bb091906116fa565b90915550508051604080519182526001600160a01b038b811660208401528282018b9052606083018a905233608084015288811660a084015287151560c0840152861660e083015261010082018590526101208201849052517ffe617faa0b722d21b2b882e2f2f85a14a69cff9565eb0fc4c31c057e52d8c49e918190036101400190a1505050505050505050565b60009182526065602090815260408084206001600160a01b0393909316845291905290205460ff1690565b610c75600033610c3f565b610cb15760405162461bcd60e51b815260206004820152600d60248201526c26bab9ba1031329020b236b4b760991b604482015260640161045f565b609980546001600160a01b0319166001600160a01b0392909216919091179055565b600082815260656020526040902060010154610cee8161105e565b61058e83836110f1565b600054610100900460ff1615808015610d185750600054600160ff909116105b80610d325750303b158015610d32575060005460ff166001145b610d955760405162461bcd60e51b815260206004820152602e60248201527f496e697469616c697a61626c653a20636f6e747261637420697320616c72656160448201526d191e481a5b9a5d1a585b1a5e995960921b606482015260840161045f565b6000805460ff191660011790558015610db8576000805461ff0019166101001790555b610dc06112f1565b610dc86112f1565b610dd06112f1565b600060978190556098849055609980546001600160a01b0319166001600160a01b038516179055610e01903361106b565b801561058e576000805461ff0019169055604051600181527f7f26b83ff96e1f2b6a682f133852f6798a09c465da95921460cefb38474024989060200160405180910390a1505050565b6001600160a01b038116610f3357600080846001600160a01b03168460405160006040518083038185875af1925050503d8060008114610ea7576040519150601f19603f3d011682016040523d82523d6000602084013e610eac565b606091505b509150915081610ef55760405162461bcd60e51b81526020600482015260146024820152732330b4b632b2103a379039b2b7321022ba3432b960611b604482015260640161045f565b7f0b76c48be4e2908f4c9d4eabaf7538e91577fd9ae26db46693fa8d861c6a42fb81604051610f24919061175d565b60405180910390a15050505050565b6040516370a0823160e01b8152306004820152819083906001600160a01b038316906370a0823190602401602060405180830381865afa158015610f7b573d6000803e3d6000fd5b505050506040513d601f19601f82011682018060405250810190610f9f9190611770565b1015610fe45760405162461bcd60e51b8152602060048201526014602482015273496e73756666696369656e742062616c616e636560601b604482015260640161045f565b60405163a9059cbb60e01b81526001600160a01b0385811660048301526024820185905282169063a9059cbb906044016020604051808303816000875af1158015611033573d6000803e3d6000fd5b505050506040513d601f19601f820116820180604052508101906110579190611789565b5050505050565b611068813361135e565b50565b6110758282610c3f565b61060d5760008281526065602090815260408083206001600160a01b03851684529091529020805460ff191660011790556110ad3390565b6001600160a01b0316816001600160a01b0316837f2f8788117e7eff1d82e926ec794901d17c78024a50270940304540a733656f0d60405160405180910390a45050565b6110fb8282610c3f565b1561060d5760008281526065602090815260408083206001600160a01b0385168085529252808320805460ff1916905551339285917ff6391f5c32d9c69d2a47ea670b442974b53935d1edc7fd64eb21e047a839171b9190a45050565b6001600160a01b0381166111ba578134146111b55760405162461bcd60e51b815260206004820152601a60248201527f416d6f756e7420616e642076616c7565206e6f74206d61746368000000000000604482015260640161045f565b6112eb565b6040516370a0823160e01b81526001600160a01b038581166004830152829184918316906370a0823190602401602060405180830381865afa158015611204573d6000803e3d6000fd5b505050506040513d601f19601f820116820180604052508101906112289190611770565b101561126d5760405162461bcd60e51b8152602060048201526014602482015273496e73756666696369656e742062616c616e636560601b604482015260640161045f565b6040516323b872dd60e01b81526001600160a01b0386811660048301528581166024830152604482018590528216906323b872dd906064016020604051808303816000875af11580156112c4573d6000803e3d6000fd5b505050506040513d601f19601f820116820180604052508101906112e89190611789565b50505b50505050565b600054610100900460ff1661135c5760405162461bcd60e51b815260206004820152602b60248201527f496e697469616c697a61626c653a20636f6e7472616374206973206e6f74206960448201526a6e697469616c697a696e6760a81b606482015260840161045f565b565b6113688282610c3f565b61060d57611375816113b7565b6113808360206113c9565b6040516020016113919291906117a6565b60408051601f198184030181529082905262461bcd60e51b825261045f9160040161175d565b60606103756001600160a01b03831660145b606060006113d88360026116ae565b6113e39060026116fa565b67ffffffffffffffff8111156113fb576113fb61181b565b6040519080825280601f01601f191660200182016040528015611425576020820181803683370190505b509050600360fc1b8160008151811061144057611440611831565b60200101906001600160f81b031916908160001a905350600f60fb1b8160018151811061146f5761146f611831565b60200101906001600160f81b031916908160001a90535060006114938460026116ae565b61149e9060016116fa565b90505b6001811115611516576f181899199a1a9b1b9c1cb0b131b232b360811b85600f16601081106114d2576114d2611831565b1a60f81b8282815181106114e8576114e8611831565b60200101906001600160f81b031916908160001a90535060049490941c9361150f81611847565b90506114a1565b5083156115655760405162461bcd60e51b815260206004820181905260248201527f537472696e67733a20686578206c656e67746820696e73756666696369656e74604482015260640161045f565b9392505050565b60006020828403121561157e57600080fd5b81356001600160e01b03198116811461156557600080fd5b6000602082840312156115a857600080fd5b5035919050565b80356001600160a01b038116811461064057600080fd5b600080604083850312156115d957600080fd5b823591506115e9602084016115af565b90509250929050565b801515811461106857600080fd5b600080600080600080600080610100898b03121561161d57600080fd5b611626896115af565b9750602089013596506040890135955061164260608a016115af565b94506080890135611652816115f2565b935061166060a08a016115af565b925060c0890135915060e089013590509295985092959890939650565b60006020828403121561168f57600080fd5b611565826115af565b634e487b7160e01b600052601160045260246000fd5b808202811582820484141761037557610375611698565b6000826116e257634e487b7160e01b600052601260045260246000fd5b500490565b8181038181111561037557610375611698565b8082018082111561037557610375611698565b60005b83811015611728578181015183820152602001611710565b50506000910152565b6000815180845261174981602086016020860161170d565b601f01601f19169290920160200192915050565b6020815260006115656020830184611731565b60006020828403121561178257600080fd5b5051919050565b60006020828403121561179b57600080fd5b8151611565816115f2565b7f416363657373436f6e74726f6c3a206163636f756e74200000000000000000008152600083516117de81601785016020880161170d565b7001034b99036b4b9b9b4b733903937b6329607d1b601791840191820152835161180f81602884016020880161170d565b01602801949350505050565b634e487b7160e01b600052604160045260246000fd5b634e487b7160e01b600052603260045260246000fd5b60008161185657611856611698565b50600019019056fea2646970667358221220f52e1d1a483d0ac6944efed49bee80bb4a450496acc9db6f232a3d017991552e64736f6c63430008110033",
    "linkReferences": {}
  },
  "methodIdentifiers": {
    "DEFAULT_ADMIN_ROLE()": "a217fddf",
    "add_order(address,uint256,bytes32,address,bool,address,uint256,uint256)": "719106c5",
    "claim_asset(bytes32)": "6e1008f2",
    "count()": "06661abd",
    "fee_collect_address()": "d5b179cb",
    "fee_rate()": "fcb53d36",
    "getRoleAdmin(bytes32)": "248a9ca3",
    "grantRole(bytes32,address)": "2f2ff15d",
    "hasRole(bytes32,address)": "91d14854",
    "initialize(uint256,address)": "da35a26f",
    "is_passphrase_unique(bytes32)": "4d78caf2",
    "renounceRole(bytes32,address)": "36568abe",
    "retrieve_unclaimed_order(bytes32)": "100152fd",
    "revokeRole(bytes32,address)": "d547741f",
    "set_fee_collect_address(address)": "9fd81507",
    "set_fee_rate(uint256)": "202b29a2",
    "supportsInterface(bytes4)": "01ffc9a7"
  },
  "id": 1
}